{
  "_format": "hh-sol-artifact-1",
  "contractName": "PropertyToken",
  "sourceName": "contracts/OrreProperty.sol",
  "abi": [
    {
      "inputs": [
        {
          "internalType": "string",
          "name": "name",
          "type": "string"
        },
        {
          "internalType": "string",
          "name": "symbol",
          "type": "string"
        },
        {
          "internalType": "uint256",
          "name": "_targetSupply",
          "type": "uint256"
        },
        {
          "internalType": "uint256",
          "name": "_price",
          "type": "uint256"
        },
        {
          "internalType": "enum PropertyToken.PropertyTier",
          "name": "_tier",
          "type": "uint8"
        },
        {
          "internalType": "string",
          "name": "_docHash",
          "type": "string"
        },
        {
          "internalType": "address",
          "name": "_paymentToken",
          "type": "address"
        },
        {
          "internalType": "address",
          "name": "admin",
          "type": "address"
        }
      ],
      "stateMutability": "nonpayable",
      "type": "constructor"
    },
    {
      "inputs": [
        {
          "internalType": "address",
          "name": "spender",
          "type": "address"
        },
        {
          "internalType": "uint256",
          "name": "allowance",
          "type": "uint256"
        },
        {
          "internalType": "uint256",
          "name": "needed",
          "type": "uint256"
        }
      ],
      "name": "ERC20InsufficientAllowance",
      "type": "error"
    },
    {
      "inputs": [
        {
          "internalType": "address",
          "name": "sender",
          "type": "address"
        },
        {
          "internalType": "uint256",
          "name": "balance",
          "type": "uint256"
        },
        {
          "internalType": "uint256",
          "name": "needed",
          "type": "uint256"
        }
      ],
      "name": "ERC20InsufficientBalance",
      "type": "error"
    },
    {
      "inputs": [
        {
          "internalType": "address",
          "name": "approver",
          "type": "address"
        }
      ],
      "name": "ERC20InvalidApprover",
      "type": "error"
    },
    {
      "inputs": [
        {
          "internalType": "address",
          "name": "receiver",
          "type": "address"
        }
      ],
      "name": "ERC20InvalidReceiver",
      "type": "error"
    },
    {
      "inputs": [
        {
          "internalType": "address",
          "name": "sender",
          "type": "address"
        }
      ],
      "name": "ERC20InvalidSender",
      "type": "error"
    },
    {
      "inputs": [
        {
          "internalType": "address",
          "name": "spender",
          "type": "address"
        }
      ],
      "name": "ERC20InvalidSpender",
      "type": "error"
    },
    {
      "inputs": [
        {
          "internalType": "address",
          "name": "owner",
          "type": "address"
        }
      ],
      "name": "OwnableInvalidOwner",
      "type": "error"
    },
    {
      "inputs": [
        {
          "internalType": "address",
          "name": "account",
          "type": "address"
        }
      ],
      "name": "OwnableUnauthorizedAccount",
      "type": "error"
    },
    {
      "inputs": [],
      "name": "ReentrancyGuardReentrantCall",
      "type": "error"
    },
    {
      "anonymous": false,
      "inputs": [
        {
          "indexed": true,
          "internalType": "address",
          "name": "owner",
          "type": "address"
        },
        {
          "indexed": true,
          "internalType": "address",
          "name": "spender",
          "type": "address"
        },
        {
          "indexed": false,
          "internalType": "uint256",
          "name": "value",
          "type": "uint256"
        }
      ],
      "name": "Approval",
      "type": "event"
    },
    {
      "anonymous": false,
      "inputs": [
        {
          "indexed": true,
          "internalType": "address",
          "name": "investor",
          "type": "address"
        },
        {
          "indexed": false,
          "internalType": "uint256",
          "name": "amount",
          "type": "uint256"
        }
      ],
      "name": "DividendClaimed",
      "type": "event"
    },
    {
      "anonymous": false,
      "inputs": [
        {
          "indexed": false,
          "internalType": "uint256",
          "name": "amount",
          "type": "uint256"
        },
        {
          "indexed": false,
          "internalType": "uint256",
          "name": "timestamp",
          "type": "uint256"
        }
      ],
      "name": "DividendDeposited",
      "type": "event"
    },
    {
      "anonymous": false,
      "inputs": [
        {
          "indexed": false,
          "internalType": "string",
          "name": "oldHash",
          "type": "string"
        },
        {
          "indexed": false,
          "internalType": "string",
          "name": "newHash",
          "type": "string"
        }
      ],
      "name": "DocHashUpdated",
      "type": "event"
    },
    {
      "anonymous": false,
      "inputs": [
        {
          "indexed": true,
          "internalType": "address",
          "name": "investor",
          "type": "address"
        },
        {
          "indexed": false,
          "internalType": "uint256",
          "name": "tokenAmount",
          "type": "uint256"
        },
        {
          "indexed": false,
          "internalType": "uint256",
          "name": "payoutAmount",
          "type": "uint256"
        }
      ],
      "name": "ExitClaimed",
      "type": "event"
    },
    {
      "anonymous": false,
      "inputs": [
        {
          "indexed": false,
          "internalType": "uint256",
          "name": "totalRaised",
          "type": "uint256"
        },
        {
          "indexed": false,
          "internalType": "uint256",
          "name": "timestamp",
          "type": "uint256"
        }
      ],
      "name": "FundraisingFinalized",
      "type": "event"
    },
    {
      "anonymous": false,
      "inputs": [
        {
          "indexed": true,
          "internalType": "address",
          "name": "investor",
          "type": "address"
        },
        {
          "indexed": false,
          "internalType": "uint256",
          "name": "tokenAmount",
          "type": "uint256"
        },
        {
          "indexed": false,
          "internalType": "uint256",
          "name": "cost",
          "type": "uint256"
        }
      ],
      "name": "Invested",
      "type": "event"
    },
    {
      "anonymous": false,
      "inputs": [
        {
          "indexed": false,
          "internalType": "uint256",
          "name": "totalProceeds",
          "type": "uint256"
        },
        {
          "indexed": false,
          "internalType": "uint256",
          "name": "ratePerToken",
          "type": "uint256"
        }
      ],
      "name": "LiquidationEnabled",
      "type": "event"
    },
    {
      "anonymous": false,
      "inputs": [
        {
          "indexed": true,
          "internalType": "address",
          "name": "previousOwner",
          "type": "address"
        },
        {
          "indexed": true,
          "internalType": "address",
          "name": "newOwner",
          "type": "address"
        }
      ],
      "name": "OwnershipTransferred",
      "type": "event"
    },
    {
      "anonymous": false,
      "inputs": [
        {
          "indexed": false,
          "internalType": "uint256",
          "name": "timestamp",
          "type": "uint256"
        }
      ],
      "name": "RefundEnabled",
      "type": "event"
    },
    {
      "anonymous": false,
      "inputs": [
        {
          "indexed": true,
          "internalType": "address",
          "name": "investor",
          "type": "address"
        },
        {
          "indexed": false,
          "internalType": "uint256",
          "name": "tokenAmount",
          "type": "uint256"
        },
        {
          "indexed": false,
          "internalType": "uint256",
          "name": "refundAmount",
          "type": "uint256"
        }
      ],
      "name": "Refunded",
      "type": "event"
    },
    {
      "anonymous": false,
      "inputs": [
        {
          "indexed": true,
          "internalType": "address",
          "name": "from",
          "type": "address"
        },
        {
          "indexed": true,
          "internalType": "address",
          "name": "to",
          "type": "address"
        },
        {
          "indexed": false,
          "internalType": "uint256",
          "name": "value",
          "type": "uint256"
        }
      ],
      "name": "Transfer",
      "type": "event"
    },
    {
      "inputs": [],
      "name": "PRECISION",
      "outputs": [
        {
          "internalType": "uint256",
          "name": "",
          "type": "uint256"
        }
      ],
      "stateMutability": "view",
      "type": "function"
    },
    {
      "inputs": [
        {
          "internalType": "address",
          "name": "owner",
          "type": "address"
        },
        {
          "internalType": "address",
          "name": "spender",
          "type": "address"
        }
      ],
      "name": "allowance",
      "outputs": [
        {
          "internalType": "uint256",
          "name": "",
          "type": "uint256"
        }
      ],
      "stateMutability": "view",
      "type": "function"
    },
    {
      "inputs": [
        {
          "internalType": "address",
          "name": "spender",
          "type": "address"
        },
        {
          "internalType": "uint256",
          "name": "value",
          "type": "uint256"
        }
      ],
      "name": "approve",
      "outputs": [
        {
          "internalType": "bool",
          "name": "",
          "type": "bool"
        }
      ],
      "stateMutability": "nonpayable",
      "type": "function"
    },
    {
      "inputs": [
        {
          "internalType": "address",
          "name": "account",
          "type": "address"
        }
      ],
      "name": "balanceOf",
      "outputs": [
        {
          "internalType": "uint256",
          "name": "",
          "type": "uint256"
        }
      ],
      "stateMutability": "view",
      "type": "function"
    },
    {
      "inputs": [],
      "name": "claimRent",
      "outputs": [],
      "stateMutability": "nonpayable",
      "type": "function"
    },
    {
      "inputs": [],
      "name": "currentStatus",
      "outputs": [
        {
          "internalType": "enum PropertyToken.Status",
          "name": "",
          "type": "uint8"
        }
      ],
      "stateMutability": "view",
      "type": "function"
    },
    {
      "inputs": [],
      "name": "decimals",
      "outputs": [
        {
          "internalType": "uint8",
          "name": "",
          "type": "uint8"
        }
      ],
      "stateMutability": "view",
      "type": "function"
    },
    {
      "inputs": [
        {
          "internalType": "uint256",
          "name": "amount",
          "type": "uint256"
        }
      ],
      "name": "depositRent",
      "outputs": [],
      "stateMutability": "nonpayable",
      "type": "function"
    },
    {
      "inputs": [],
      "name": "dividendsPerTokenCumulative",
      "outputs": [
        {
          "internalType": "uint256",
          "name": "",
          "type": "uint256"
        }
      ],
      "stateMutability": "view",
      "type": "function"
    },
    {
      "inputs": [
        {
          "internalType": "uint256",
          "name": "totalProceeds",
          "type": "uint256"
        }
      ],
      "name": "enableLiquidation",
      "outputs": [],
      "stateMutability": "nonpayable",
      "type": "function"
    },
    {
      "inputs": [],
      "name": "enableRefunds",
      "outputs": [],
      "stateMutability": "nonpayable",
      "type": "function"
    },
    {
      "inputs": [],
      "name": "finalizeFundraising",
      "outputs": [],
      "stateMutability": "nonpayable",
      "type": "function"
    },
    {
      "inputs": [
        {
          "internalType": "address",
          "name": "user",
          "type": "address"
        }
      ],
      "name": "getClaimableRent",
      "outputs": [
        {
          "internalType": "uint256",
          "name": "",
          "type": "uint256"
        }
      ],
      "stateMutability": "view",
      "type": "function"
    },
    {
      "inputs": [
        {
          "internalType": "uint256",
          "name": "amount",
          "type": "uint256"
        },
        {
          "internalType": "string",
          "name": "",
          "type": "string"
        }
      ],
      "name": "invest",
      "outputs": [],
      "stateMutability": "nonpayable",
      "type": "function"
    },
    {
      "inputs": [
        {
          "internalType": "address",
          "name": "",
          "type": "address"
        }
      ],
      "name": "lastClaimedDividend",
      "outputs": [
        {
          "internalType": "uint256",
          "name": "",
          "type": "uint256"
        }
      ],
      "stateMutability": "view",
      "type": "function"
    },
    {
      "inputs": [],
      "name": "legalDocHash",
      "outputs": [
        {
          "internalType": "string",
          "name": "",
          "type": "string"
        }
      ],
      "stateMutability": "view",
      "type": "function"
    },
    {
      "inputs": [],
      "name": "liquidationRate",
      "outputs": [
        {
          "internalType": "uint256",
          "name": "",
          "type": "uint256"
        }
      ],
      "stateMutability": "view",
      "type": "function"
    },
    {
      "inputs": [],
      "name": "name",
      "outputs": [
        {
          "internalType": "string",
          "name": "",
          "type": "string"
        }
      ],
      "stateMutability": "view",
      "type": "function"
    },
    {
      "inputs": [],
      "name": "owner",
      "outputs": [
        {
          "internalType": "address",
          "name": "",
          "type": "address"
        }
      ],
      "stateMutability": "view",
      "type": "function"
    },
    {
      "inputs": [],
      "name": "paymentToken",
      "outputs": [
        {
          "internalType": "contract IERC20",
          "name": "",
          "type": "address"
        }
      ],
      "stateMutability": "view",
      "type": "function"
    },
    {
      "inputs": [],
      "name": "pricePerToken",
      "outputs": [
        {
          "internalType": "uint256",
          "name": "",
          "type": "uint256"
        }
      ],
      "stateMutability": "view",
      "type": "function"
    },
    {
      "inputs": [],
      "name": "redeemExitProceeds",
      "outputs": [],
      "stateMutability": "nonpayable",
      "type": "function"
    },
    {
      "inputs": [],
      "name": "refund",
      "outputs": [],
      "stateMutability": "nonpayable",
      "type": "function"
    },
    {
      "inputs": [],
      "name": "renounceOwnership",
      "outputs": [],
      "stateMutability": "nonpayable",
      "type": "function"
    },
    {
      "inputs": [],
      "name": "symbol",
      "outputs": [
        {
          "internalType": "string",
          "name": "",
          "type": "string"
        }
      ],
      "stateMutability": "view",
      "type": "function"
    },
    {
      "inputs": [],
      "name": "targetRaiseAmount",
      "outputs": [
        {
          "internalType": "uint256",
          "name": "",
          "type": "uint256"
        }
      ],
      "stateMutability": "view",
      "type": "function"
    },
    {
      "inputs": [],
      "name": "tier",
      "outputs": [
        {
          "internalType": "enum PropertyToken.PropertyTier",
          "name": "",
          "type": "uint8"
        }
      ],
      "stateMutability": "view",
      "type": "function"
    },
    {
      "inputs": [],
      "name": "totalDividendsDistributed",
      "outputs": [
        {
          "internalType": "uint256",
          "name": "",
          "type": "uint256"
        }
      ],
      "stateMutability": "view",
      "type": "function"
    },
    {
      "inputs": [],
      "name": "totalRaised",
      "outputs": [
        {
          "internalType": "uint256",
          "name": "",
          "type": "uint256"
        }
      ],
      "stateMutability": "view",
      "type": "function"
    },
    {
      "inputs": [],
      "name": "totalSupply",
      "outputs": [
        {
          "internalType": "uint256",
          "name": "",
          "type": "uint256"
        }
      ],
      "stateMutability": "view",
      "type": "function"
    },
    {
      "inputs": [
        {
          "internalType": "address",
          "name": "to",
          "type": "address"
        },
        {
          "internalType": "uint256",
          "name": "value",
          "type": "uint256"
        }
      ],
      "name": "transfer",
      "outputs": [
        {
          "internalType": "bool",
          "name": "",
          "type": "bool"
        }
      ],
      "stateMutability": "nonpayable",
      "type": "function"
    },
    {
      "inputs": [
        {
          "internalType": "address",
          "name": "from",
          "type": "address"
        },
        {
          "internalType": "address",
          "name": "to",
          "type": "address"
        },
        {
          "internalType": "uint256",
          "name": "value",
          "type": "uint256"
        }
      ],
      "name": "transferFrom",
      "outputs": [
        {
          "internalType": "bool",
          "name": "",
          "type": "bool"
        }
      ],
      "stateMutability": "nonpayable",
      "type": "function"
    },
    {
      "inputs": [
        {
          "internalType": "address",
          "name": "newOwner",
          "type": "address"
        }
      ],
      "name": "transferOwnership",
      "outputs": [],
      "stateMutability": "nonpayable",
      "type": "function"
    },
    {
      "inputs": [
        {
          "internalType": "string",
          "name": "newHash",
          "type": "string"
        }
      ],
      "name": "updateLegalDocHash",
      "outputs": [],
      "stateMutability": "nonpayable",
      "type": "function"
    }
  ],
  "bytecode": "0x60806040523480156200001157600080fd5b5060405162004692380380620046928339818101604052810190620000379190620004e7565b80888881600390816200004b91906200084e565b5080600490816200005d91906200084e565b505050600073ffffffffffffffffffffffffffffffffffffffff168173ffffffffffffffffffffffffffffffffffffffff1603620000d55760006040517f1e4fbdf7000000000000000000000000000000000000000000000000000000008152600401620000cc919062000946565b60405180910390fd5b620000e681620001c660201b60201c565b50600160068190555083600760006101000a81548160ff0219169083600281111562000117576200011662000963565b5b02179055508460088190555082600b90816200013491906200084e565b5081600c60006101000a81548173ffffffffffffffffffffffffffffffffffffffff021916908373ffffffffffffffffffffffffffffffffffffffff1602179055508486620001849190620009c1565b6009819055506000600760016101000a81548160ff02191690836003811115620001b357620001b262000963565b5b0217905550505050505050505062000a0c565b6000600560009054906101000a900473ffffffffffffffffffffffffffffffffffffffff16905081600560006101000a81548173ffffffffffffffffffffffffffffffffffffffff021916908373ffffffffffffffffffffffffffffffffffffffff1602179055508173ffffffffffffffffffffffffffffffffffffffff168173ffffffffffffffffffffffffffffffffffffffff167f8be0079c531659141344cd1fd0a4f28419497f9722a3daafe3b4186f6b6457e060405160405180910390a35050565b6000604051905090565b600080fd5b600080fd5b600080fd5b600080fd5b6000601f19601f8301169050919050565b7f4e487b7100000000000000000000000000000000000000000000000000000000600052604160045260246000fd5b620002f582620002aa565b810181811067ffffffffffffffff82111715620003175762000316620002bb565b5b80604052505050565b60006200032c6200028c565b90506200033a8282620002ea565b919050565b600067ffffffffffffffff8211156200035d576200035c620002bb565b5b6200036882620002aa565b9050602081019050919050565b60005b838110156200039557808201518184015260208101905062000378565b60008484015250505050565b6000620003b8620003b2846200033f565b62000320565b905082815260208101848484011115620003d757620003d6620002a5565b5b620003e484828562000375565b509392505050565b600082601f830112620004045762000403620002a0565b5b815162000416848260208601620003a1565b91505092915050565b6000819050919050565b62000434816200041f565b81146200044057600080fd5b50565b600081519050620004548162000429565b92915050565b600381106200046857600080fd5b50565b6000815190506200047c816200045a565b92915050565b600073ffffffffffffffffffffffffffffffffffffffff82169050919050565b6000620004af8262000482565b9050919050565b620004c181620004a2565b8114620004cd57600080fd5b50565b600081519050620004e181620004b6565b92915050565b600080600080600080600080610100898b0312156200050b576200050a62000296565b5b600089015167ffffffffffffffff8111156200052c576200052b6200029b565b5b6200053a8b828c01620003ec565b985050602089015167ffffffffffffffff8111156200055e576200055d6200029b565b5b6200056c8b828c01620003ec565b97505060406200057f8b828c0162000443565b9650506060620005928b828c0162000443565b9550506080620005a58b828c016200046b565b94505060a089015167ffffffffffffffff811115620005c957620005c86200029b565b5b620005d78b828c01620003ec565b93505060c0620005ea8b828c01620004d0565b92505060e0620005fd8b828c01620004d0565b9150509295985092959890939650565b600081519050919050565b7f4e487b7100000000000000000000000000000000000000000000000000000000600052602260045260246000fd5b600060028204905060018216806200066057607f821691505b60208210810362000676576200067562000618565b5b50919050565b60008190508160005260206000209050919050565b60006020601f8301049050919050565b600082821b905092915050565b600060088302620006e07fffffffffffffffffffffffffffffffffffffffffffffffffffffffffffffffff82620006a1565b620006ec8683620006a1565b95508019841693508086168417925050509392505050565b6000819050919050565b60006200072f6200072962000723846200041f565b62000704565b6200041f565b9050919050565b6000819050919050565b6200074b836200070e565b620007636200075a8262000736565b848454620006ae565b825550505050565b600090565b6200077a6200076b565b6200078781848462000740565b505050565b5b81811015620007af57620007a360008262000770565b6001810190506200078d565b5050565b601f821115620007fe57620007c8816200067c565b620007d38462000691565b81016020851015620007e3578190505b620007fb620007f28562000691565b8301826200078c565b50505b505050565b600082821c905092915050565b6000620008236000198460080262000803565b1980831691505092915050565b60006200083e838362000810565b9150826002028217905092915050565b62000859826200060d565b67ffffffffffffffff811115620008755762000874620002bb565b5b62000881825462000647565b6200088e828285620007b3565b600060209050601f831160018114620008c65760008415620008b1578287015190505b620008bd858262000830565b8655506200092d565b601f198416620008d6866200067c565b60005b828110156200090057848901518255600182019150602085019450602081019050620008d9565b868310156200092057848901516200091c601f89168262000810565b8355505b6001600288020188555050505b505050505050565b6200094081620004a2565b82525050565b60006020820190506200095d600083018462000935565b92915050565b7f4e487b7100000000000000000000000000000000000000000000000000000000600052602160045260246000fd5b7f4e487b7100000000000000000000000000000000000000000000000000000000600052601160045260246000fd5b6000620009ce826200041f565b9150620009db836200041f565b9250828202620009eb816200041f565b9150828204841483151762000a055762000a0462000992565b5b5092915050565b613c768062000a1c6000396000f3fe608060405234801561001057600080fd5b50600436106102065760003560e01c806385a6b3ae1161011a578063c35719a7116100ad578063eabcc3281161007c578063eabcc32814610573578063ef8a92351461057d578063f2a3d6231461059b578063f2fde38b146105cb578063f6e96ced146105e757610206565b8063c35719a7146104fd578063c5c4744c1461051b578063cb31f7ad14610539578063dd62ed3e1461054357610206565b806395d89b41116100e957806395d89b4114610473578063a71e864414610491578063a9059cbb146104af578063aaf5eb68146104df57610206565b806385a6b3ae146104235780638c52dc41146104415780638cbe51041461044b5780638da5cb5b1461045557610206565b80633013ce291161019d57806356da67ec1161016c57806356da67ec146103a3578063590e1ae3146103c157806370a08231146103cb578063715018a6146103fb5780637b1b1de61461040557610206565b80633013ce291461032f578063313ce5671461034d578063336161b21461036b57806345a1f79a1461038757610206565b806318160ddd116101d957806318160ddd146102a75780631a5eba21146102c557806323b872dd146102e15780632c2c8a571461031157610206565b806306fdde031461020b578063095ea7b31461022957806309b6a7401461025957806316f4d02214610289575b600080fd5b610213610603565b60405161022091906127d0565b60405180910390f35b610243600480360381019061023e919061289a565b610695565b60405161025091906128f5565b60405180910390f35b610273600480360381019061026e9190612910565b6106b8565b604051610280919061294c565b60405180910390f35b610291610752565b60405161029e91906129de565b60405180910390f35b6102af610765565b6040516102bc919061294c565b60405180910390f35b6102df60048036038101906102da9190612b2e565b61076f565b005b6102fb60048036038101906102f69190612b8a565b610a16565b60405161030891906128f5565b60405180910390f35b610319610a45565b60405161032691906127d0565b60405180910390f35b610337610ad3565b6040516103449190612c3c565b60405180910390f35b610355610af9565b6040516103629190612c73565b60405180910390f35b61038560048036038101906103809190612c8e565b610b02565b005b6103a1600480360381019061039c9190612cd7565b610be6565b005b6103ab610e34565b6040516103b8919061294c565b60405180910390f35b6103c9610e3a565b005b6103e560048036038101906103e09190612910565b61107d565b6040516103f2919061294c565b60405180910390f35b6104036110c5565b005b61040d6110d9565b60405161041a919061294c565b60405180910390f35b61042b6110df565b604051610438919061294c565b60405180910390f35b6104496110e5565b005b6104536111c7565b005b61045d611295565b60405161046a9190612d13565b60405180910390f35b61047b6112bf565b60405161048891906127d0565b60405180910390f35b610499611351565b6040516104a6919061294c565b60405180910390f35b6104c960048036038101906104c4919061289a565b611357565b6040516104d691906128f5565b60405180910390f35b6104e761137a565b6040516104f4919061294c565b60405180910390f35b610505611386565b604051610512919061294c565b60405180910390f35b61052361138c565b604051610530919061294c565b60405180910390f35b610541611392565b005b61055d60048036038101906105589190612d2e565b6115d2565b60405161056a919061294c565b60405180910390f35b61057b611659565b005b6105856118c6565b6040516105929190612db6565b60405180910390f35b6105b560048036038101906105b09190612910565b6118d9565b6040516105c2919061294c565b60405180910390f35b6105e560048036038101906105e09190612910565b6118f1565b005b61060160048036038101906105fc9190612cd7565b611977565b005b60606003805461061290612e00565b80601f016020809104026020016040519081016040528092919081815260200182805461063e90612e00565b801561068b5780601f106106605761010080835404028352916020019161068b565b820191906000526020600020905b81548152906001019060200180831161066e57829003601f168201915b5050505050905090565b6000806106a0611c37565b90506106ad818585611c3f565b600191505092915050565b6000806106c48361107d565b9050600081036106d857600091505061074d565b6000600e60008573ffffffffffffffffffffffffffffffffffffffff1673ffffffffffffffffffffffffffffffffffffffff16815260200190815260200160002054600f546107279190612e60565b9050670de0b6b3a7640000818361073e9190612e94565b6107489190612f05565b925050505b919050565b600760009054906101000a900460ff1681565b6000600254905090565b610777611c51565b6000600381111561078b5761078a612967565b5b600760019054906101000a900460ff1660038111156107ad576107ac612967565b5b146107ed576040517f08c379a00000000000000000000000000000000000000000000000000000000081526004016107e490612f82565b60405180910390fd5b6000600854836107fd9190612e94565b905060095481600a546108109190612fa2565b1115610851576040517f08c379a000000000000000000000000000000000000000000000000000000000815260040161084890613022565b60405180910390fd5b600c60009054906101000a900473ffffffffffffffffffffffffffffffffffffffff1673ffffffffffffffffffffffffffffffffffffffff166323b872dd3330846040518463ffffffff1660e01b81526004016108b093929190613042565b6020604051808303816000875af11580156108cf573d6000803e3d6000fd5b505050506040513d601f19601f820116820180604052508101906108f391906130a5565b610932576040517f08c379a00000000000000000000000000000000000000000000000000000000081526004016109299061311e565b60405180910390fd5b61095a3361093e610af9565b600a61094a9190613271565b856109559190612e94565b611c97565b80600a600082825461096c9190612fa2565b92505081905550600f54600e60003373ffffffffffffffffffffffffffffffffffffffff1673ffffffffffffffffffffffffffffffffffffffff168152602001908152602001600020819055503373ffffffffffffffffffffffffffffffffffffffff167f9e9d071824fd57d062ca63fd8b786d8da48a6807eebbcb2d83f9e8d21398e28c8483604051610a019291906132bc565b60405180910390a250610a12611d19565b5050565b600080610a21611c37565b9050610a2e858285611d23565b610a39858585611db7565b60019150509392505050565b600b8054610a5290612e00565b80601f0160208091040260200160405190810160405280929190818152602001828054610a7e90612e00565b8015610acb5780601f10610aa057610100808354040283529160200191610acb565b820191906000526020600020905b815481529060010190602001808311610aae57829003601f168201915b505050505081565b600c60009054906101000a900473ffffffffffffffffffffffffffffffffffffffff1681565b60006006905090565b610b0a611eab565b6000600b8054610b1990612e00565b80601f0160208091040260200160405190810160405280929190818152602001828054610b4590612e00565b8015610b925780601f10610b6757610100808354040283529160200191610b92565b820191906000526020600020905b815481529060010190602001808311610b7557829003601f168201915b5050505050905081600b9081610ba89190613487565b507f48193b4bb0f9bb33040c9f3ee64efd5a852a0f6aa75965816788094c601b6fe28183604051610bda929190613559565b60405180910390a15050565b610bee611eab565b610bf6611c51565b60016003811115610c0a57610c09612967565b5b600760019054906101000a900460ff166003811115610c2c57610c2b612967565b5b14610c6c576040517f08c379a0000000000000000000000000000000000000000000000000000000008152600401610c63906135dc565b60405180910390fd5b6000610c76610765565b11610cb6576040517f08c379a0000000000000000000000000000000000000000000000000000000008152600401610cad90613648565b60405180910390fd5b600c60009054906101000a900473ffffffffffffffffffffffffffffffffffffffff1673ffffffffffffffffffffffffffffffffffffffff166323b872dd3330846040518463ffffffff1660e01b8152600401610d1593929190613042565b6020604051808303816000875af1158015610d34573d6000803e3d6000fd5b505050506040513d601f19601f82011682018060405250810190610d5891906130a5565b610d97576040517f08c379a0000000000000000000000000000000000000000000000000000000008152600401610d8e906136b4565b60405180910390fd5b610d9f610765565b670de0b6b3a764000082610db39190612e94565b610dbd9190612f05565b6010819055506003600760016101000a81548160ff02191690836003811115610de957610de8612967565b5b02179055507fbdc85f8357c8cf0a76f70459035561a05fa646860fbbf1480ad4d985c31dd0a381601054604051610e219291906132bc565b60405180910390a1610e31611d19565b50565b60095481565b610e42611c51565b60026003811115610e5657610e55612967565b5b600760019054906101000a900460ff166003811115610e7857610e77612967565b5b14610eb8576040517f08c379a0000000000000000000000000000000000000000000000000000000008152600401610eaf90613720565b60405180910390fd5b6000610ec33361107d565b905060008111610f08576040517f08c379a0000000000000000000000000000000000000000000000000000000008152600401610eff90613648565b60405180910390fd5b6000610f12610af9565b600a610f1e9190613271565b60085483610f2c9190612e94565b610f369190612f05565b9050610f423383611f32565b600c60009054906101000a900473ffffffffffffffffffffffffffffffffffffffff1673ffffffffffffffffffffffffffffffffffffffff1663a9059cbb33836040518363ffffffff1660e01b8152600401610f9f929190613740565b6020604051808303816000875af1158015610fbe573d6000803e3d6000fd5b505050506040513d601f19601f82011682018060405250810190610fe291906130a5565b611021576040517f08c379a0000000000000000000000000000000000000000000000000000000008152600401611018906137b5565b60405180910390fd5b3373ffffffffffffffffffffffffffffffffffffffff167f2dc8e290002f06fc0085bbca9dfb8b415cf4d1178950c72ff9ee8f4d8878ee6683836040516110699291906132bc565b60405180910390a2505061107b611d19565b565b60008060008373ffffffffffffffffffffffffffffffffffffffff1673ffffffffffffffffffffffffffffffffffffffff168152602001908152602001600020549050919050565b6110cd611eab565b6110d76000611fb4565b565b60085481565b600d5481565b6110ed611eab565b6000600381111561110157611100612967565b5b600760019054906101000a900460ff16600381111561112357611122612967565b5b14611163576040517f08c379a000000000000000000000000000000000000000000000000000000000815260040161115a90613821565b60405180910390fd5b6002600760016101000a81548160ff0219169083600381111561118957611188612967565b5b02179055507f652b51ebfa74d4bc01d860bdc67153acb742ccf10072afc89a7f59efa77485ba426040516111bd919061294c565b60405180910390a1565b6111cf611c51565b600160038111156111e3576111e2612967565b5b600760019054906101000a900460ff16600381111561120557611204612967565b5b1480611243575060038081111561121f5761121e612967565b5b600760019054906101000a900460ff16600381111561124157611240612967565b5b145b611282576040517f08c379a00000000000000000000000000000000000000000000000000000000081526004016112799061388d565b60405180910390fd5b61128b3361207a565b611293611d19565b565b6000600560009054906101000a900473ffffffffffffffffffffffffffffffffffffffff16905090565b6060600480546112ce90612e00565b80601f01602080910402602001604051908101604052809291908181526020018280546112fa90612e00565b80156113475780601f1061131c57610100808354040283529160200191611347565b820191906000526020600020905b81548152906001019060200180831161132a57829003601f168201915b5050505050905090565b60105481565b600080611362611c37565b905061136f818585611db7565b600191505092915050565b670de0b6b3a764000081565b600f5481565b600a5481565b61139a611c51565b6003808111156113ad576113ac612967565b5b600760019054906101000a900460ff1660038111156113cf576113ce612967565b5b1461140f576040517f08c379a0000000000000000000000000000000000000000000000000000000008152600401611406906138f9565b60405180910390fd5b6114183361207a565b60006114233361107d565b905060008111611468576040517f08c379a000000000000000000000000000000000000000000000000000000000815260040161145f90613965565b60405180910390fd5b6000670de0b6b3a7640000601054836114819190612e94565b61148b9190612f05565b90506114973383611f32565b600c60009054906101000a900473ffffffffffffffffffffffffffffffffffffffff1673ffffffffffffffffffffffffffffffffffffffff1663a9059cbb33836040518363ffffffff1660e01b81526004016114f4929190613740565b6020604051808303816000875af1158015611513573d6000803e3d6000fd5b505050506040513d601f19601f8201168201806040525081019061153791906130a5565b611576576040517f08c379a000000000000000000000000000000000000000000000000000000000815260040161156d906137b5565b60405180910390fd5b3373ffffffffffffffffffffffffffffffffffffffff167f0fa92cf6f53511c8d9ae0e64cb1b0a623836b5392bb1a84440ff0f4b31b3d21183836040516115be9291906132bc565b60405180910390a250506115d0611d19565b565b6000600160008473ffffffffffffffffffffffffffffffffffffffff1673ffffffffffffffffffffffffffffffffffffffff16815260200190815260200160002060008373ffffffffffffffffffffffffffffffffffffffff1673ffffffffffffffffffffffffffffffffffffffff16815260200190815260200160002054905092915050565b611661611eab565b6000600381111561167557611674612967565b5b600760019054906101000a900460ff16600381111561169757611696612967565b5b146116d7576040517f08c379a00000000000000000000000000000000000000000000000000000000081526004016116ce906139d1565b60405180910390fd5b6001600760016101000a81548160ff021916908360038111156116fd576116fc612967565b5b02179055506000600c60009054906101000a900473ffffffffffffffffffffffffffffffffffffffff1673ffffffffffffffffffffffffffffffffffffffff166370a08231306040518263ffffffff1660e01b815260040161175f9190612d13565b602060405180830381865afa15801561177c573d6000803e3d6000fd5b505050506040513d601f19601f820116820180604052508101906117a09190613a06565b9050600c60009054906101000a900473ffffffffffffffffffffffffffffffffffffffff1673ffffffffffffffffffffffffffffffffffffffff1663a9059cbb6117e8611295565b836040518363ffffffff1660e01b8152600401611806929190613740565b6020604051808303816000875af1158015611825573d6000803e3d6000fd5b505050506040513d601f19601f8201168201806040525081019061184991906130a5565b611888576040517f08c379a000000000000000000000000000000000000000000000000000000000815260040161187f90613a7f565b60405180910390fd5b7f3d92e7ccb6bcf7f5ea5cf2faafd4b1b7fda8bfcd3bfe58d3fc8f9519a8d5bcf0600a54426040516118bb9291906132bc565b60405180910390a150565b600760019054906101000a900460ff1681565b600e6020528060005260406000206000915090505481565b6118f9611eab565b600073ffffffffffffffffffffffffffffffffffffffff168173ffffffffffffffffffffffffffffffffffffffff160361196b5760006040517f1e4fbdf70000000000000000000000000000000000000000000000000000000081526004016119629190612d13565b60405180910390fd5b61197481611fb4565b50565b61197f611eab565b611987611c51565b6001600381111561199b5761199a612967565b5b600760019054906101000a900460ff1660038111156119bd576119bc612967565b5b146119fd576040517f08c379a00000000000000000000000000000000000000000000000000000000081526004016119f490613aeb565b60405180910390fd5b6000611a07610765565b11611a47576040517f08c379a0000000000000000000000000000000000000000000000000000000008152600401611a3e90613648565b60405180910390fd5b6000611a51610765565b670de0b6b3a764000083611a659190612e94565b611a6f9190612f05565b905060008111611ab4576040517f08c379a0000000000000000000000000000000000000000000000000000000008152600401611aab90613b57565b60405180910390fd5b6000670de0b6b3a7640000611ac7610765565b83611ad29190612e94565b611adc9190612f05565b9050600c60009054906101000a900473ffffffffffffffffffffffffffffffffffffffff1673ffffffffffffffffffffffffffffffffffffffff166323b872dd3330846040518463ffffffff1660e01b8152600401611b3d93929190613042565b6020604051808303816000875af1158015611b5c573d6000803e3d6000fd5b505050506040513d601f19601f82011682018060405250810190611b8091906130a5565b611bbf576040517f08c379a0000000000000000000000000000000000000000000000000000000008152600401611bb6906137b5565b60405180910390fd5b81600f6000828254611bd19190612fa2565b9250508190555080600d6000828254611bea9190612fa2565b925050819055507f191e2b2c370fe29a3462b2a039b5d57432f06ba932859d6b716ba1df0a190bde8142604051611c229291906132bc565b60405180910390a15050611c34611d19565b50565b600033905090565b611c4c8383836001612253565b505050565b600260065403611c8d576040517f3ee5aeb500000000000000000000000000000000000000000000000000000000815260040160405180910390fd5b6002600681905550565b600073ffffffffffffffffffffffffffffffffffffffff168273ffffffffffffffffffffffffffffffffffffffff1603611d095760006040517fec442f05000000000000000000000000000000000000000000000000000000008152600401611d009190612d13565b60405180910390fd5b611d156000838361242a565b5050565b6001600681905550565b6000611d2f84846115d2565b90507fffffffffffffffffffffffffffffffffffffffffffffffffffffffffffffffff8114611db15781811015611da1578281836040517ffb8f41b2000000000000000000000000000000000000000000000000000000008152600401611d9893929190613b77565b60405180910390fd5b611db084848484036000612253565b5b50505050565b600073ffffffffffffffffffffffffffffffffffffffff168373ffffffffffffffffffffffffffffffffffffffff1603611e295760006040517f96c6fd1e000000000000000000000000000000000000000000000000000000008152600401611e209190612d13565b60405180910390fd5b600073ffffffffffffffffffffffffffffffffffffffff168273ffffffffffffffffffffffffffffffffffffffff1603611e9b5760006040517fec442f05000000000000000000000000000000000000000000000000000000008152600401611e929190612d13565b60405180910390fd5b611ea683838361242a565b505050565b611eb3611c37565b73ffffffffffffffffffffffffffffffffffffffff16611ed1611295565b73ffffffffffffffffffffffffffffffffffffffff1614611f3057611ef4611c37565b6040517f118cdaa7000000000000000000000000000000000000000000000000000000008152600401611f279190612d13565b60405180910390fd5b565b600073ffffffffffffffffffffffffffffffffffffffff168273ffffffffffffffffffffffffffffffffffffffff1603611fa45760006040517f96c6fd1e000000000000000000000000000000000000000000000000000000008152600401611f9b9190612d13565b60405180910390fd5b611fb08260008361242a565b5050565b6000600560009054906101000a900473ffffffffffffffffffffffffffffffffffffffff16905081600560006101000a81548173ffffffffffffffffffffffffffffffffffffffff021916908373ffffffffffffffffffffffffffffffffffffffff1602179055508173ffffffffffffffffffffffffffffffffffffffff168173ffffffffffffffffffffffffffffffffffffffff167f8be0079c531659141344cd1fd0a4f28419497f9722a3daafe3b4186f6b6457e060405160405180910390a35050565b6000612085826106b8565b9050600081111561220857600f54600e60008473ffffffffffffffffffffffffffffffffffffffff1673ffffffffffffffffffffffffffffffffffffffff16815260200190815260200160002081905550600c60009054906101000a900473ffffffffffffffffffffffffffffffffffffffff1673ffffffffffffffffffffffffffffffffffffffff1663a9059cbb83836040518363ffffffff1660e01b8152600401612133929190613740565b6020604051808303816000875af1158015612152573d6000803e3d6000fd5b505050506040513d601f19601f8201168201806040525081019061217691906130a5565b6121b5576040517f08c379a00000000000000000000000000000000000000000000000000000000081526004016121ac906137b5565b60405180910390fd5b8173ffffffffffffffffffffffffffffffffffffffff167f5efa67896a23b651b741b525caacba039c00ca7853be3de8eb1f4269e8669c56826040516121fb919061294c565b60405180910390a261224f565b600f54600e60008473ffffffffffffffffffffffffffffffffffffffff1673ffffffffffffffffffffffffffffffffffffffff168152602001908152602001600020819055505b5050565b600073ffffffffffffffffffffffffffffffffffffffff168473ffffffffffffffffffffffffffffffffffffffff16036122c55760006040517fe602df050000000000000000000000000000000000000000000000000000000081526004016122bc9190612d13565b60405180910390fd5b600073ffffffffffffffffffffffffffffffffffffffff168373ffffffffffffffffffffffffffffffffffffffff16036123375760006040517f94280d6200000000000000000000000000000000000000000000000000000000815260040161232e9190612d13565b60405180910390fd5b81600160008673ffffffffffffffffffffffffffffffffffffffff1673ffffffffffffffffffffffffffffffffffffffff16815260200190815260200160002060008573ffffffffffffffffffffffffffffffffffffffff1673ffffffffffffffffffffffffffffffffffffffff168152602001908152602001600020819055508015612424578273ffffffffffffffffffffffffffffffffffffffff168473ffffffffffffffffffffffffffffffffffffffff167f8c5be1e5ebec7d5bd14f71427d1e84f3dd0314c0f7b2291e5b200ac8c7c3b9258460405161241b919061294c565b60405180910390a35b50505050565b60038081111561243d5761243c612967565b5b600760019054906101000a900460ff16600381111561245f5761245e612967565b5b0361250b57600073ffffffffffffffffffffffffffffffffffffffff168373ffffffffffffffffffffffffffffffffffffffff1614806124cb5750600073ffffffffffffffffffffffffffffffffffffffff168273ffffffffffffffffffffffffffffffffffffffff16145b61250a576040517f08c379a000000000000000000000000000000000000000000000000000000000815260040161250190613c20565b60405180910390fd5b5b61251683838361251b565b505050565b600073ffffffffffffffffffffffffffffffffffffffff168373ffffffffffffffffffffffffffffffffffffffff160361256d5780600260008282546125619190612fa2565b92505081905550612640565b60008060008573ffffffffffffffffffffffffffffffffffffffff1673ffffffffffffffffffffffffffffffffffffffff168152602001908152602001600020549050818110156125f9578381836040517fe450d38c0000000000000000000000000000000000000000000000000000000081526004016125f093929190613b77565b60405180910390fd5b8181036000808673ffffffffffffffffffffffffffffffffffffffff1673ffffffffffffffffffffffffffffffffffffffff16815260200190815260200160002081905550505b600073ffffffffffffffffffffffffffffffffffffffff168273ffffffffffffffffffffffffffffffffffffffff160361268957806002600082825403925050819055506126d6565b806000808473ffffffffffffffffffffffffffffffffffffffff1673ffffffffffffffffffffffffffffffffffffffff168152602001908152602001600020600082825401925050819055505b8173ffffffffffffffffffffffffffffffffffffffff168373ffffffffffffffffffffffffffffffffffffffff167fddf252ad1be2c89b69c2b068fc378daa952ba7f163c4a11628f55a4df523b3ef83604051612733919061294c565b60405180910390a3505050565b600081519050919050565b600082825260208201905092915050565b60005b8381101561277a57808201518184015260208101905061275f565b60008484015250505050565b6000601f19601f8301169050919050565b60006127a282612740565b6127ac818561274b565b93506127bc81856020860161275c565b6127c581612786565b840191505092915050565b600060208201905081810360008301526127ea8184612797565b905092915050565b6000604051905090565b600080fd5b600080fd5b600073ffffffffffffffffffffffffffffffffffffffff82169050919050565b600061283182612806565b9050919050565b61284181612826565b811461284c57600080fd5b50565b60008135905061285e81612838565b92915050565b6000819050919050565b61287781612864565b811461288257600080fd5b50565b6000813590506128948161286e565b92915050565b600080604083850312156128b1576128b06127fc565b5b60006128bf8582860161284f565b92505060206128d085828601612885565b9150509250929050565b60008115159050919050565b6128ef816128da565b82525050565b600060208201905061290a60008301846128e6565b92915050565b600060208284031215612926576129256127fc565b5b60006129348482850161284f565b91505092915050565b61294681612864565b82525050565b6000602082019050612961600083018461293d565b92915050565b7f4e487b7100000000000000000000000000000000000000000000000000000000600052602160045260246000fd5b600381106129a7576129a6612967565b5b50565b60008190506129b882612996565b919050565b60006129c8826129aa565b9050919050565b6129d8816129bd565b82525050565b60006020820190506129f360008301846129cf565b92915050565b600080fd5b600080fd5b7f4e487b7100000000000000000000000000000000000000000000000000000000600052604160045260246000fd5b612a3b82612786565b810181811067ffffffffffffffff82111715612a5a57612a59612a03565b5b80604052505050565b6000612a6d6127f2565b9050612a798282612a32565b919050565b600067ffffffffffffffff821115612a9957612a98612a03565b5b612aa282612786565b9050602081019050919050565b82818337600083830152505050565b6000612ad1612acc84612a7e565b612a63565b905082815260208101848484011115612aed57612aec6129fe565b5b612af8848285612aaf565b509392505050565b600082601f830112612b1557612b146129f9565b5b8135612b25848260208601612abe565b91505092915050565b60008060408385031215612b4557612b446127fc565b5b6000612b5385828601612885565b925050602083013567ffffffffffffffff811115612b7457612b73612801565b5b612b8085828601612b00565b9150509250929050565b600080600060608486031215612ba357612ba26127fc565b5b6000612bb18682870161284f565b9350506020612bc28682870161284f565b9250506040612bd386828701612885565b9150509250925092565b6000819050919050565b6000612c02612bfd612bf884612806565b612bdd565b612806565b9050919050565b6000612c1482612be7565b9050919050565b6000612c2682612c09565b9050919050565b612c3681612c1b565b82525050565b6000602082019050612c516000830184612c2d565b92915050565b600060ff82169050919050565b612c6d81612c57565b82525050565b6000602082019050612c886000830184612c64565b92915050565b600060208284031215612ca457612ca36127fc565b5b600082013567ffffffffffffffff811115612cc257612cc1612801565b5b612cce84828501612b00565b91505092915050565b600060208284031215612ced57612cec6127fc565b5b6000612cfb84828501612885565b91505092915050565b612d0d81612826565b82525050565b6000602082019050612d286000830184612d04565b92915050565b60008060408385031215612d4557612d446127fc565b5b6000612d538582860161284f565b9250506020612d648582860161284f565b9150509250929050565b60048110612d7f57612d7e612967565b5b50565b6000819050612d9082612d6e565b919050565b6000612da082612d82565b9050919050565b612db081612d95565b82525050565b6000602082019050612dcb6000830184612da7565b92915050565b7f4e487b7100000000000000000000000000000000000000000000000000000000600052602260045260246000fd5b60006002820490506001821680612e1857607f821691505b602082108103612e2b57612e2a612dd1565b5b50919050565b7f4e487b7100000000000000000000000000000000000000000000000000000000600052601160045260246000fd5b6000612e6b82612864565b9150612e7683612864565b9250828203905081811115612e8e57612e8d612e31565b5b92915050565b6000612e9f82612864565b9150612eaa83612864565b9250828202612eb881612864565b91508282048414831517612ecf57612ece612e31565b5b5092915050565b7f4e487b7100000000000000000000000000000000000000000000000000000000600052601260045260246000fd5b6000612f1082612864565b9150612f1b83612864565b925082612f2b57612f2a612ed6565b5b828204905092915050565b7f46756e6472616973696e67206e6f742061637469766500000000000000000000600082015250565b6000612f6c60168361274b565b9150612f7782612f36565b602082019050919050565b60006020820190508181036000830152612f9b81612f5f565b9050919050565b6000612fad82612864565b9150612fb883612864565b9250828201905080821115612fd057612fcf612e31565b5b92915050565b7f4578636565647320746172676574207261697365000000000000000000000000600082015250565b600061300c60148361274b565b915061301782612fd6565b602082019050919050565b6000602082019050818103600083015261303b81612fff565b9050919050565b60006060820190506130576000830186612d04565b6130646020830185612d04565b613071604083018461293d565b949350505050565b613082816128da565b811461308d57600080fd5b50565b60008151905061309f81613079565b92915050565b6000602082840312156130bb576130ba6127fc565b5b60006130c984828501613090565b91505092915050565b7f5061796d656e74206661696c6564000000000000000000000000000000000000600082015250565b6000613108600e8361274b565b9150613113826130d2565b602082019050919050565b60006020820190508181036000830152613137816130fb565b9050919050565b60008160011c9050919050565b6000808291508390505b60018511156131955780860481111561317157613170612e31565b5b60018516156131805780820291505b808102905061318e8561313e565b9450613155565b94509492505050565b6000826131ae576001905061326a565b816131bc576000905061326a565b81600181146131d257600281146131dc5761320b565b600191505061326a565b60ff8411156131ee576131ed612e31565b5b8360020a91508482111561320557613204612e31565b5b5061326a565b5060208310610133831016604e8410600b84101617156132405782820a90508381111561323b5761323a612e31565b5b61326a565b61324d848484600161314b565b9250905081840481111561326457613263612e31565b5b81810290505b9392505050565b600061327c82612864565b915061328783612c57565b92506132b47fffffffffffffffffffffffffffffffffffffffffffffffffffffffffffffffff848461319e565b905092915050565b60006040820190506132d1600083018561293d565b6132de602083018461293d565b9392505050565b60008190508160005260206000209050919050565b60006020601f8301049050919050565b600082821b905092915050565b6000600883026133477fffffffffffffffffffffffffffffffffffffffffffffffffffffffffffffffff8261330a565b613351868361330a565b95508019841693508086168417925050509392505050565b600061338461337f61337a84612864565b612bdd565b612864565b9050919050565b6000819050919050565b61339e83613369565b6133b26133aa8261338b565b848454613317565b825550505050565b600090565b6133c76133ba565b6133d2818484613395565b505050565b5b818110156133f6576133eb6000826133bf565b6001810190506133d8565b5050565b601f82111561343b5761340c816132e5565b613415846132fa565b81016020851015613424578190505b613438613430856132fa565b8301826133d7565b50505b505050565b600082821c905092915050565b600061345e60001984600802613440565b1980831691505092915050565b6000613477838361344d565b9150826002028217905092915050565b61349082612740565b67ffffffffffffffff8111156134a9576134a8612a03565b5b6134b38254612e00565b6134be8282856133fa565b600060209050601f8311600181146134f157600084156134df578287015190505b6134e9858261346b565b865550613551565b601f1984166134ff866132e5565b60005b8281101561352757848901518255600182019150602085019450602081019050613502565b868310156135445784890151613540601f89168261344d565b8355505b6001600288020188555050505b505050505050565b600060408201905081810360008301526135738185612797565b905081810360208301526135878184612797565b90509392505050565b7f4d7573742062652061637469766520746f206c69717569646174650000000000600082015250565b60006135c6601b8361274b565b91506135d182613590565b602082019050919050565b600060208201905081810360008301526135f5816135b9565b9050919050565b7f4e6f20746f6b656e730000000000000000000000000000000000000000000000600082015250565b600061363260098361274b565b915061363d826135fc565b602082019050919050565b6000602082019050818103600083015261366181613625565b9050919050565b7f4465706f736974206661696c6564000000000000000000000000000000000000600082015250565b600061369e600e8361274b565b91506136a982613668565b602082019050919050565b600060208201905081810360008301526136cd81613691565b9050919050565b7f526566756e6473206e6f74206163746976650000000000000000000000000000600082015250565b600061370a60128361274b565b9150613715826136d4565b602082019050919050565b60006020820190508181036000830152613739816136fd565b9050919050565b60006040820190506137556000830185612d04565b613762602083018461293d565b9392505050565b7f5472616e73666572206661696c65640000000000000000000000000000000000600082015250565b600061379f600f8361274b565b91506137aa82613769565b602082019050919050565b600060208201905081810360008301526137ce81613792565b9050919050565b7f546f6f206c617465000000000000000000000000000000000000000000000000600082015250565b600061380b60088361274b565b9150613816826137d5565b602082019050919050565b6000602082019050818103600083015261383a816137fe565b9050919050565b7f43616e6e6f7420636c61696d206e6f7700000000000000000000000000000000600082015250565b600061387760108361274b565b915061388282613841565b602082019050919050565b600060208201905081810360008301526138a68161386a565b9050919050565b7f4e6f74206c697175696461746564207965740000000000000000000000000000600082015250565b60006138e360128361274b565b91506138ee826138ad565b602082019050919050565b60006020820190508181036000830152613912816138d6565b9050919050565b7f4e6f20746f6b656e7320746f2072656465656d00000000000000000000000000600082015250565b600061394f60138361274b565b915061395a82613919565b602082019050919050565b6000602082019050818103600083015261397e81613942565b9050919050565b7f4e6f742066756e6472616973696e670000000000000000000000000000000000600082015250565b60006139bb600f8361274b565b91506139c682613985565b602082019050919050565b600060208201905081810360008301526139ea816139ae565b9050919050565b600081519050613a008161286e565b92915050565b600060208284031215613a1c57613a1b6127fc565b5b6000613a2a848285016139f1565b91505092915050565b7f5769746864726177206661696c65640000000000000000000000000000000000600082015250565b6000613a69600f8361274b565b9150613a7482613a33565b602082019050919050565b60006020820190508181036000830152613a9881613a5c565b9050919050565b7f50726f7065727479206e6f742061637469766500000000000000000000000000600082015250565b6000613ad560138361274b565b9150613ae082613a9f565b602082019050919050565b60006020820190508181036000830152613b0481613ac8565b9050919050565b7f416d6f756e7420746f6f20736d616c6c00000000000000000000000000000000600082015250565b6000613b4160108361274b565b9150613b4c82613b0b565b602082019050919050565b60006020820190508181036000830152613b7081613b34565b9050919050565b6000606082019050613b8c6000830186612d04565b613b99602083018561293d565b613ba6604083018461293d565b949350505050565b7f5472616e73666572732064697361626c656420647572696e67206c697175696460008201527f6174696f6e000000000000000000000000000000000000000000000000000000602082015250565b6000613c0a60258361274b565b9150613c1582613bae565b604082019050919050565b60006020820190508181036000830152613c3981613bfd565b905091905056fea2646970667358221220d1eeaf14d5d938dba443240c58046d8823dc6277513a39445c55c7c46eba222e64736f6c63430008140033",
  "linkReferences": {},
  "deployedLinkReferences": {}
}